:020000040800F2
:10000000F0FF0010E9030408D1EF0308D5850008CC
:10001000ED040408ED040408ED04040800000000E9
:100020000000000000000000000000005DF6030872
:1000300059F603080000000055F603081DCD00081E
:10004000ED040408ED040408ED040408ED040408BC
:10005000ED040408ED04040885610208B162020899
:100060007562020839620208FD61020841A10208B6
:1000700031A1020821A1020811A10208FDA0020875
:10008000E9A00208D5A00208ED040408ED04040864
:10009000ED040408ED040408ED040408C16102083D
:1000A000ED04040875970008ED040408359800086D
:1000B000ED040408ED040408B5960008DDA6020866
:1000C000E5A60208D1A60208D9A60208ED04040894
:1000D000ED04040815D0000879CF0008DDCE000833
:1000E00049610208ED04040861F6030869940008F8
:1000F00035950008ED040408F5950008C1A0020834
:10010000ED040408ED040408ED040408ED040408FB
:1001100041CE0008A5CD0008C1A20108A5A2010892
:10012000ADA0020899A002083D96020885A0020829
:1001300071A00208ED040408ED040408ED040408AD
:10014000ED040408ED040408ED040408D5EF0308E9
:100150005DA0020849A0020835A00208ED040408C9
:10016000C5A60208CDA60208ED040408ED040408A3
:10017000ED040408ED040408ED040408ED0404088B
:08018000ED040408ED0404087D
:0801880090FF030001000000DC
:1001900007020200383900207C39002000000000EE
:1001A0004006000802000C000C39002080390020B5
:1001B000000000000000000006020C0000390020D2
:1001C0008C39002000000000D11A03080802090041
:1001D0008A38002098390020000000003D1A0308EA
:1001E000F701060084380020A43900200000000038
:1001F000420600080A020A00C8370020AC39002075
:1002000000000000480600082700040028370020EE
:10021000B839002000000000520600080120080044
:100220006C360020BC390020000000005606000893
:100230001A000A002C2E0020C43900200000000003
:100240005E060008031233008C870020128C002009
:10025000000000006806000825005A00BF87002043
:10026000A88B00200000000000000000F6110C0028
:10027000188B0020388B0020000000009C0600082E
:100280002C001000248B0020028C002000000000B5
:10029000A9D701082B002400698C0020458C002080
:1002A0000000000079D7010829006400388A002086
:1002B000448B002000000000000000001400020039
:1002C000E4890020348B002000000000A80600080C
:1002D00010100300D4890020D48C002000000000FE
:1002E000AA06000828001000C8840020D88C00202E
:1002F00000000000CDB7010823001000EC830020AF
:10030000E88C002000000000E5B701081900050096
:10031000CC890020F88C002000000000AE06000808
:10032000F821060036850020008D00200000000026
:10033000B406000822000C00F0A70020C4A800208A
:1003400000000000BA0600081B00F40044930020DF
:10035000D0A800200000000071B802080E020200C0
:100360008C9A0020C4A9002000000000C6060008E6
:100370002F0011008CA80020C8A900200000000058
:10038000C806000805100600B8A80020DCA9002057
:1003900000000000DA060008F5216E00BC92002083
:1003A000E4A900200000000045B0020826000E006D
:1003B00064AA002054AA0020000000001DB002081A
:1003C0000B2010002C93002074AA002000000000D5
:1003D000E00600081F101C009C92002084AA002048
:1003E00000000000F006000805020100E49600206D
:1003F000A0AA0020000000000C07000803010A006A
:1004000028950020A4AA0020000000000E07000884
:100410001600080010AB002034AB002000000000E4
:10042000180700080E20F000EAAD0020C0B400203C
:1004300000000000C90401081300040058B00020A7
:10044000B0B50020000000002007000801010400F2
:100450006AAD0020B4B500200000000000000000DC
:100460000001040062AD0020B8B5002000000000CB
:1004700024070008020103005DAD0020BCB5002088
:10048000000000007911010809020100F8B3002002
:10049000C0B5002000000000280700080C1008016B
:1004A0002AAF0020C4B5002000000000FB100108A6
:1004B0000102050072AD0020CCB600200000000053
:1004C0001D5D03080002050040AB0020D4B60020EB
:1004D00000000000000000001E000400CCB100205D
:1004E000DCB60020000000002A070008130201000B
:1004F000FCBF002094F50020000000000000000078
:100500000400800090F4002098F500200000000016
:1005100000000000F901040074E9002018F6002032
:1005200000000000CD810008FD011E0050E9002000
:100530001CF60020000000005D8100080610160077
:1005400068DC00203CF6002000000000F1070108F4
:10055000FB010100A4DB002054F600200000000095
:10056000C1190308FC01090070DA002058F60020C8
:1005700000000000011A03081102080044DA0020FC
:1005800064F60020000000002E070008121204008C
:100590003CDA00206CF6002000000000360700085E
:1005A00012200D0028DA002070F600200000000064
:1005B0003A07000818202C0084D9002080F600207B
:1005C0000000000005E501080D003400B0D900204E
:1005D000ACF6002000000000E51A0308FA01020052
:1005E00058D30020E0F6002000000000D15002089F
:1005F000020203002CC80020E4F6002000000000E6
:10060000000000000C0201001CC80020E8F60020D9
:100610000000000048070008FE01090028D3002060
:10062000ECF6002000000000691A03080A102C00F4
:10063000D8D20020F8F60020000000004A07000889
:10064000023C3F010000000000004A01B400D60156
:10065000260020030000E8036400040A00017E0570
:10066000EA05B405320000000000000000000000B0
:10067000000000000000000000000000000000007A
:10068000000000000000000000000000000000006A
:100690000000000000000000000001000000000059
:1006A0000000000000000000030000050000000042
:1006B000280100000200F4011900C800141E010006
:1006C00064002C0128000000000000000000000071
:1006D00000000000000000000000200001010000F8
:1006E0002B21231E64010100000001000A012900E2
:1006F00000000000000001000000050000000000F4
:1007000000000000000000000000000000000401E4
:1007100001006C1600000000651B0D00190128285F
:1007200008044400FA00000000000000010000007E
:10073000000001010101FFFFFFFF000000010000B8
:100740000548455350000000010000300107015AE0
:100750000001000000000000000000000000010097
:10076000000030000100B80BB80BB80B200050009F
:06077000500050000000E3
:10077600FF010102FFFF00000000803F00000000B3
:100786000000000000000000000000000000000063
:100796000000000000000000000000000000000053
:1007A6000000803F00000000000000000000000084
:1007B6000000803F00000000000000000000000074
:1007C6000000803F00000000000000000000000064
:1007D6000000803F0000803F000000006C390020D0
:1007E60008000000000000005C390020080000003E
:1007F6006C27040805080400000000009051040856
:10080600184404087C5104080000000000000000A1
:100816009827040805080A00000000009051040803
:10082600184404088C500408000000000000000072
:10083600D6010000D5C70108000000000000000036
:1008460001006A0001000000FFFFFFFF0100000039
:100856005001000007000000020000000000000038
:1008660000000000010203040607080909026400EB
:10087600030100C032090400000103000000092141
:10088600110100012226000705830308000A080B50
:100896000102020201000904010001020201000531
:1008A6002400100105240100020424020205240686
:1008B6000102070582030800FF09040200020A007C
:1008C6000000070501024000000705810240000004
:1008D60000FFFF0000000000AA550501000001000E
:1008E600000001FFFF01000005010905A101A100AB
:1008F600050109300931093209330935093409403E
:1009060009381581257F750895088102C0C0000049
:1009160009022200010100E032090400000103017E
:1009260002000921110100012226000705830308A0
:10093600000A000000000000010203040102030493
:10094600060708092D202D2D202D2D2D2D202D2D8E
:100956002D2D000000000000000000000000000037
:10096600000000AA550B010000AA5507010000AAC5
:10097600550902000000000001000000C012AA553F
:1009860003009F00FF1FFF1F4886040800000000A9
:10099600000000008D190308A08601000400000075
:1009A6000000000000000000000000000000000041
:1009B600000000000000000000000000749B040816
:1009C600B493040869520208854B01087D000000B3
:1009D600070000000000000000000000000000000A
:1009E6000000000000000000000000000000000001
:1009F600BC9304080000000000000000998A00086B
:100A0600E8030000030000000000000000000000F2
:100A160000000000000000000000000000000000D0
:100A260000000000C0930408000000000000000061
:100A36004D130108E8030000050000000000000057
:100A460000000000000000000000000000000000A0
:100A56000000000000000000CC9304080000000025
:100A6600F1D40108C19F00086A18000005000000C3
:100A76000000000000000000000000000000000070
:100A8600000000000000000000000000F4870408D9
:100A9600000000000000000065FB000810270000B1
:100AA600010000000000000000000000000000003F
:100AB6000000000000000000000000000000000030
:100AC600D093040800000000000000000180000828
:100AD600E803000005000000000000000000000020
:100AE6000000000000000000000000000000000000
:100AF60000000000DC930408000000000000000075
:100B060089A70108204E0000030000000000000035
:100B160000000000000000000000000000000000CF
:100B26000000000000000000EC9304080000000034
:100B36000000000075A50108204E0000030000001B
:100B4600000000000000000000000000000000009F
:100B5600000000000000000000000000FC930408F4
:100B66000000000000000000DD810008400D0300C9
:100B7600030000000000000000000000000000006C
:100B8600000000000000000000000000000000005F
:100B96000C8704080000000000000000A5260308DA
:100BA6001027000001000000000000000000000007
:100BB600000000000000000000000000000000002F
:100BC60000000000FC870408000000000000000090
:100BD60055900308102700000300000000000000E5
:100BE60000000000000000000000000000000000FF
:100BF60000000000000000000C9404080000000043
:100C06000000000079E00108A08601000100000054
:100C160000000000000000000000000000000000CE
:100C2600000000000000000000000000149404080A
:100C3600000000000000000015A40308A0860100C3
:100C4600010000000000000000000000000000009D
:100C5600000000000000000000000000000000008E
:100C66000088040800000000000000006DD10008A4
:100C7600A00F0000010000000000000000000000BE
:100C8600000000000000000000000000000000005E
:100C9600000000002094040800000000000000008E
:100CA600FDC502081027000001000000000000003A
:100CB600000000000000000000000000000000002E
:100CC6000000000000000000148704080000000077
:100CD60000000000591203081A410000010000003C
:100CE60000000000000000000000000000000000FE
:100CF60000000000000000000000000060880408FA
:100D06000000000000000000F5AC020810270000FB
:100D160001000000000000000000000000000000CC
:100D260000000000000000000000000000000000BD
:100D3600789304080000000000000000CD7F03083F
:100D46001A41000001000000000000000000000041
:100D5600000000000000000000000000000000008D
:100D6600000000002C9404080000000000000000B1
:100D760035E30208400D03000000000000000000FB
:100D8600000000000000000000000000000000005D
:100D96000000000000000000349404080000000079
:100DA600000000008D1A0308400D0300000000003B
:100DB600000000000000000000000000000000002D
:100DC6000000000000000000000000003C94040841
:100DD600000000000000000001960308A086010044
:100DE60003000000000000000000000000000000FA
:100DF60000000000000000000000000000000000ED
:100E060048940408000000000000000041A5010805
:100E160040420F000000000000000000000000003B
:100E260000000000000000000000000000000000BC
:100E360000000000549404080000000000000000B8
:100E4600FD1B030850C30000000000000000000066
:100E5600000000000000000000000000000000008C
:100E6600000000000000000001000000FFFFFFFF7F
:100E76002DD30208B1D20208A1CB0208000000005F
:100E860089B7020821D4020891B702088DB7020873
:100E96000000000000000000E5A7020835B10308C5
:100EA600F5B00308F1EE03080000000075AD030875
:100EB60049B00308C9B00308B1AF03080000000039
:100EC6000000000069AD0308E00101010100000017
:100ED6000D5F030800000000D408002008A20408E3
:100EE60000000000000000000000000000000000FC
:100EF6004CA3040800000000000000006009002068
:100F060004000000B4A104080D000000357A0308AF
:100F16001C24002000000000E49A04080D000000D4
:100F26000D7A03081024002000000000549C0408D9
:100F36000800000000000000042400200400000057
:100F4600509B04080D000000C15F0308F823002031
:100F560000000000049C040803000000517C030804
:100F6600EC2300200000000018A204080300000083
:100F7600517C0308E023002000000000409804088C
:100F8600010000000000000000000000000000005A
:100F9600000000000E00000000000000000000003D
:100FA6000000000008A20408000000000000000085
:100FB60000000000000000004CA304080000000030
:100FC60000000000600900200400000060A1040881
:100FD60003000000096B0308D4230020080000006A
:100FE600509B04080D000000C15F0308F823002091
:100FF60000000000049C040803000000517C030864
:10100600EC2300200000000018A2040803000000E2
:10101600517C0308E02300200000000040980408EB
:1010260001000000000000000000000000000000B9
:10103600000000000E00000000000000000000009C
:101046000000000020A204080000000000000000CC
:1010560000000000000000004CA30408000000008F
:1010660000000000600900200400000068A10408D8
:1010760003000000517C0308282400200000000023
:101086004098040801000000000000000000000075
:1010960000000000000000000E000000000000003C
:1010A600000000000000000020700020702D72007B
:1010B600080000000000000000000000901F002053
:1010C600FFFFFFFFFA000000010000000100000022
:1010D6002D202D2D202D2D2D2D202D2D2D000000E8
:1010E60000000000000000000000000000000000FA
:1010F600149804081C980408389804080000000096
:10110600000000000000000000000000AA9704088C
:1011160004000000D577030800000000000000006E
:1011260040980408010000000000000000000000D4
:1011360000000000000000000E000000000000009B
:10114600000000000000000042F500200100C40974
:101156000000000040F500200100C4090000000066
:101166003EF500200100C409000000003CF5002007
:101176000100C4090000000038F500200100C40980
:10118600000000003AF500200100C409000000003C
:1011960036F500200100C4090000000034F50020E7
:1011A6000100C4090000000084AD00200100C80051
:1011B6000100000082AD00203200307532000000D0
:1011C60080AD0020055A05007DAD002000FF01001E
:1011D6007FAD002001000000800900207BAD0020CB
:1011E60002000000144504087CAD002000FF010049
:1011F6007EAD002001000000800900207AAD0020AD
:10120600020000001445040870AD002080C1803E35
:10121600050000006EAD002080C1803E0500000084
:1012260068AD002080C1803E0500000066AD00204C
:1012360080C1803E0500000060AD002000FF010077
:101246005CAD00200A3201005BAD00200400000006
:101256006C5004085AAD00200200000080500408BB
:101266000000000000000000880900209C96002075
:101276009CFF2C01000000005A0700200A00000015
:101286008C50040850AD0020E0150C17000000003B
:101296005C07002008000000184404085B070020D3
:1012A600050000009051040852AD00200200000025
:1012B600A450040848B000200100FF7F0100000090
:1012C60046B0002002000000B0500408DFAD002048
:1012D60003000000C0500408DEAD0020030000003B
:1012E600C0500408E6AE00200000C2010100000064
:1012F600E2AE00200000C20101000000E4AE0020C2
:101306000000C20101000000DEAE00200000803EA9
:1013160032000000DCAE00200000803E32000000FB
:10132600DAAE00200000803E32000000E0AE002071
:1013360000002C0101000000F0AE00200000F401C6
:1013460001000000EEAE00200000F40101000000E4
:10135600ECAE00200000F40101000000EAAE00201F
:101366000000F40101000000E8AE002000FF0100CB
:101376000CAF0020E803D0070A0000000AAF0020E7
:10138600006401000A000000FFAE002000640100B6
:10139600FEAE00200064010006AF002000640100DC
:1013A6000A00000005AF0020006401000A000000EA
:1013B60004AF0020006401000A00000009AF00200D
:1013C600006401000A00000008AF0020006401006C
:1013D6000A00000007AF0020006401000A000000B8
:1013E60003AF002000FF01000A00000002AF00204A
:1013F60000FF01000A00000001AF002000FF01000D
:101406000A000000E6AD00200000F4010100000023
:10141600E4AD00200000F40101000000E2AD002070
:101426000000F40101000000E0AD00200000F4011E
:1014360001000000FAAE00201400E80301000000DD
:10144600F8AE0020E803307501000000F7AE00207A
:1014560000C80100F6AE002000C80100F5AE00206D
:1014660000C80100F4AE0020016401000A0000007B
:10147600F3AE002000FF01000A0000003CB000208F
:1014860000C801003BB0002000C801003AB00020AF
:1014960000C8010039B0002000C8010038B00020A3
:1014A60000C8010037B0002000C8010036B0002097
:1014B60000C8010035B0002000C8010034B000208B
:1014C60000C8010033B0002001000000D05004081D
:1014D60068980408000000000000000000000000FA
:1014E60000000000789804080900000000000000D1
:1014F6002C0A00200400000080980408090000005F
:1015060000000000200A002004000000609F04087C
:101516000900000000000000140A0020040000007A
:10152600585B04080900000000000000080A0020BB
:10153600040000008898040809000000000000006C
:10154600FC0900200400000090980408090000002F
:1015560000000000F009002004000000989804082C
:101566000900000000000000E4090020040000005B
:10157600A09804080900000000000000D809002017
:10158600040000004098040801000000000000006C
:101596000000000000000000000000000E00000037
:1015A600000000000000000000000000D8990408B8
:1015B6000000000000000000000000000000000025
:1015C600FC8504080700000000000000500A002007
:1015D60000000000E8990408080000000000000070
:1015E600440A002000000000F499040808000000E6
:1015F60000000000380A002000000000409804089F
:1016060001000000000000000000000000000000D3
:10161600000000000E0000000000000000000000B6
:1016260000000000FC990408000000000000000013
:1016360000000000000000000C9A04080D000000E5
:10164600000000008C0A002000000000149A040824
:101656000D00000000000000800A002000000000CD
:101666001C9A04080700000000000000780A002009
:1016760000000000249A04080D000000000000008D
:101686006C0A0020000000002C9A04080D000000DF
:1016960000000000600A002000000000349A0408E0
:1016A6000700000000000000580A002000000000AB
:1016B600409804080100000000000000000000003F
:1016C60000000000000000000E0000000000000006
:1016D60000000000000000003C9A04080000000022
:1016E600000000000000000000000000FC85040867
:1016F6000C0000000000000086AD00200000000085
:10170600509A04080C0000000000000088AD00207C
:1017160000000000609A04080C00000000000000B1
:10172600BEAD002000000000709A04080C00000006
:1017360000000000B2AD002000000000849A0408FA
:101746000C000000000000008AAD00200000000030
:10175600989404080C000000000000008CAD0020E6
:1017660000000000909A04080C0000000000000031
:101776008EAD002000000000A49A04080C000000B2
:101786000000000090AD002000000000AC9A0408A4
:101796000C0000000000000092AD002000000000D8
:1017A600B49A04080C00000000000000D0AD002030
:1017B60000000000CC9A04080C00000000000000A5
:1017C60094AD002000000000D89A04080C00000028
:1017D6000000000096AD00200000000038930408C9
:1017E6000C0000000000000098AD00200000000082
:1017F600E09A04080C000000000000009AAD0020EA
:1018060000000000EC9A04080C0000000000000034
:101816009CAD002000000000F89A04080C000000AF
:10182600000000009EAD002000000000049B04089C
:101836000C00000000000000A0AD00200000000029
:10184600109B04080C00000000000000A2AD002060
:10185600000000001C9B04080C00000000000000B3
:10186600B6AD002000000000249B04080C00000018
:1018760000000000B4AD0020000000002C9B04080E
:101886000C00000000000000C2AD002000000000B7
:10189600389B04080C00000000000000C4AD0020C6
:1018A60000000000449B04080C000000000000003B
:1018B600CAAD002000000000309904080C000000AA
:1018C60000000000A4AD002000000000509B0408AA
:1018D6000C00000000000000ACAD0020000000007D
:1018E600589B04080C00000000000000A6AD002074
:1018F60000000000649B04080C00000000000000CB
:10190600A8AD002000000000709B04080C00000039
:1019160000000000AAAD002000000000789B04082B
:101926000C00000000000000AEAD0020000000002A
:101936001C8604080C00000000000000B8AD002062
:1019460000000000849B04080C000000000000005A
:10195600B0AD002000000000909B04080C000000C1
:1019660000000000C0AD0020000000009C9B0408A1
:101976000C00000000000000BAAD002000000000CE
:10198600A49B04080C00000000000000BCAD002071
:1019960000000000AC9B04080C00000000000000E2
:1019A600C6AD002000000000B49B04080C00000037
:1019B60000000000C8AD00200000000040980408A8
:1019C6000100000000000000000000000000000010
:1019D600000000000E0000000000000000000000F3
:1019E60000000000BC9B040800000000000000008E
:1019F6000000000000000000C89B04080D00000065
:101A060000000000E40A002000000000D09B04084B
:101A16000D00000000000000D80A002000000000B1
:101A2600D89B04080700000000000000D00A002030
:101A360000000000E49B040807000000000000000E
:101A4600C80A002000000000F09B040809000000FE
:101A560000000000BC0A002000000000FC9B0408F7
:101A66000900000000000000B00A0020000000008D
:101A7600089C04080900000000000000A40A0020D9
:101A860000000000189C0408090000000000000087
:101A9600980A002000000000409804080100000099
:101AA6000000000000000000000000000000000030
:101AB6000E00000000000000000000000000000012
:101AC6002C9C04080000000000000000000000003C
:101AD600000000003C9C0408050000000000000017
:101AE600DDAD002000000000409804080100000061
:101AF60000000000000000000000000000000000E0
:101B06000E000000000000000000000000000000C1
:101B1600449C0408000000000000000000000000D3
:101B2600000000004CA304080000000000000000B4
:101B3600D401002004000000509C04080D000000A1
:101B460039780308380B002000000000B4A104080F
:101B56000D000000C55E03082C0B002000000000ED
:101B6600E49A04080D000000A95E0308200B00207B
:101B760000000000549C040808000000000000005B
:101B8600140B002004000000509B04080D00000008
:101B9600F15D0308080B0020000000005C9C0408AF
:101BA6000900000000000000FC0A002004000000FC
:101BB600049C040803000000517C0308F00A00207E
:101BC600000000004098040801000000000000002A
:101BD6000000000000000000000000000E000000F1
:101BE600000000000000000000000000649C0408E3
:101BF60000000000000000000000000000000000DF
:101C0600749C04080D00000000000000500B00202A
:101C1600000000007C9C04080A0000000000000090
:101C26007DB1002000000000889C04080A00000026
:101C36000000000085B1002000000000909C040810
:101C46000A000000000000008DB100200000000026
:101C5600989C04080800000000000000440B0020C7
:101C660000000000A09C040804000000E97D0308B1
:101C76000000000000000000409804080100000079
:101C8600000000000000000000000000000000004E
:101C96000E00000000000000000000000000000030
:101CA600AC9C0408000000000000000000000000DA
:101CB60000000000C09C04080D00000000000000A9
:101CC600680B002000000000D09C040804000000FF
:101CD600817A03080000000000000000D89C040878
:101CE6000D000000000000005C0B0020000000005A
:101CF600EC9C0408040000005D7A03080000000064
:101D060000000000409804080100000000000000E8
:101D16000000000000000000000000000E000000AF
:101D2600000000000000000000000000F49C040811
:101D3600000000000000000000000000000000009D
:101D4600089D0408000000000000000000000000DC
:101D560000000000289D04080800000000000000A4
:101D6600BC0B002000000000309D040808000000A5
:101D760000000000B00B002000000000389D0408A1
:101D86000800000000000000A40B00200000000076
:101D9600409D04080800000000000000980B002089
:101DA60000000000489D0408080000000000000034
:101DB6008C0B002000000000549D04080800000061
:101DC60000000000800B002000000000609D040859
:101DD6000800000000000000740B00200000000056
:101DE6004098040801000000000000000000000008
:101DF60000000000689D040802000000357E03080C
:101E06000200000000000000000000000E000000BC
:101E1600000000000000000000000000749D04089F
:101E260000000000000000000000000000000000AC
:101E3600889D04080700000000000000F80B002041
:101E460000000000949D0408080000000000000047
:101E5600EC0B002000000000A09D04080800000014
:101E660000000000E00B002000000000AC9D04080C
:101E76000800000000000000D40B00200000000055
:101E8600B89D04080800000000000000C80B0020F0
:101E96000000000040980408010000000000000057
:101EA6000000000000000000000000000E0000001E
:101EB600000000000000000000000000C49D0408AF
:101EC60000000000000000003B09002000000000A8
:101ED600D09D04080B00000000000000880C0020C4
:101EE60000000000DC9D04080B000000000000005C
:101EF6007C0C002000000000E89D04080B00000098
:101F060000000000700C002000000000F49D040892
:101F16000B00000000000000640C00200000000020
:101F2600009E04080B00000000000000580C002072
:101F3600000000000C9E04080B00000000000000DA
:101F46004C0C002000000000189E04080B00000046
:101F560000000000400C002000000000249E040841
:101F66000B00000000000000340C00200000000000
:101F7600309E04080B00000000000000280C002022
:101F8600000000003C9E040807000000000000005E
:101F9600200C002000000000449E040807000000FA
:101FA60000000000180C002000000000509E0408ED
:101FB6000B000000000000000C0C002000000000D8
:101FC6005C9E04080800000000000000000C0020D1
:101FD6000000000040980408010000000000000016
:101FE6000000000000000000000000000E000000DD
:101FF600000000000000000000000000689E0408C9
:1020060000000000000000000000000000000000CA
:102016007C9E04080800000000000000B80C0020A8
:1020260000000000889E0408080000000000000070
:10203600AC0C002000000000949E0408080000007C
:1020460000000000A00C002000000000609D0408B5
:102056000800000000000000940C002000000000B2
:102066004098040801000000000000000000000085
:1020760000000000000000000E000000000000004C
:102086000000000000000000A09E04080000000000
:10209600000000003809002000000000B09E04087F
:1020A6000B00000000000000000D002000000000F2
:1020B600BC9E04080B00000000000000F40C002089
:1020C60000000000C89E0408070000000000000091
:1020D600EC0C002000000000D49E0408070000005D
:1020E60000000000E40C002000000000E09E040850
:1020F6000700000000000000DC0C002000000000CB
:10210600EC9E04080800000000000000D00C00202F
:1021160000000000F49E0408080000000000000013
:10212600C40C0020000000004098040801000000D4
:102136000000000000000000000000000000000099
:102146000E0000000000000000000000000000007B
:10215600FC9E040800000000000000003809002072
:1021660000000000089F04080D00000000000000A9
:10217600540D002000000000149F04080700000012
:10218600000000004C0D0020000000001C9F040809
:102196000700000000000000440D002000000000C1
:1021A600249F040807000000000000003C0D0020EA
:1021B60000000000205B040807000000000000008B
:1021C600340D002000000000285B04080700000012
:1021D600000000002C0D002000000000305B040809
:1021E6000700000000000000240D00200000000091
:1021F6002C9F040807000000000000001C0D0020B2
:1022060000000000349F04080700000000000000E2
:10221600140D0020000000003C9F04080700000089
:10222600000000000C0D002000000000409804088B
:102236000100000000000000000000000000000097
:10224600449F040802000000357E030801000000D8
:1022560000000000000000000E000000000000006A
:1022660000000000000000000000000035620308C6
:10227600600D0020DBAD00201D000000D8500408D2
:10228600DAAD002000C80100D8AD0020E803D00771
:102296000100000048454C494F535052494E4700F3
:1022A60079AD00200003010078AD00200003010095
:1022B6007D610308556103083C0E00201161030887
:1022C600C5600308B40E0020BD610308A5610308BC
:1022D600680F002031600308E55F030874120020D0
:1022E6004B620308C565030850130020315E0308DE
:1022F60000000000A0130020C57D03084165030807
:102306007C140020716203080000000030150020D4
:1023160021630308E5620308BC1500208D630308EA
:102326005D630308AC1600201964030861640308A2
:102336004C170020FCAE002001060100B162030824
:10234600856203088C180020BD630308A57A03087C
:10235600181900208D640308017B0308E01900208A
:10236600F2AE002001030100509F040800000000A7
:102376000000000000000000000000005C9F040850
:102386000800000000000000181B002000000000EC
:10239600649F04080700000000000000101B0020D6
:1023A60000000000749F04080D00000000000000FB
:1023B600041B002000000000809F040803000000AA
:1023C600517C0308F81A0020000000004098040819
:1023D60001000000000000000000000000000000F6
:1023E600000000000E0000000000000000000000D9
:1023F60000000000889F04080000000000000000A4
:102406000000000000000000989F04080A00000079
:10241600000000006C94040800000000A09F04085F
:102426000A00000000000000845D040800000000AF
:10243600A89F04080A000000000000003DB000202C
:1024460000000000B09F04080A0000000000000021
:10245600241B002000000000409804080100000032
:102466000000000000000000000000000000000066
:102476000E00000000000000000000000000000048
:10248600B89F0408000000000000000000000000E3
:1024960000000000C49F040803000000517C0308EC
:1024A600581B002000000000D09F04080300000015
:1024B600517C03084C1B002000000000D89F040834
:1024C60003000000517C0308401B002000000000B0
:1024D600E09F0408050000000000000077AD002022
:1024E60000000000E89F040807000000000000004C
:1024F600381B002000000000F49F040807000000BD
:1025060000000000301B0020000000004098040876
:1025160001000000000000000000000000000000B4
:10252600000000000E000000000000000000000097
:102536000000000000A004080000000000000000E9
:102546000000000000000000589504080300000089
:10255600517C0308881B00200000000014A004081A
:1025660003000000517C0308600700200000000003
:102576001CA0040803000000517C03087C1B0020FB
:102586000000000024A0040803000000517C03089A
:10259600701B002000000000509B04080300000090
:1025A600517C0308641B00200000000040980408CA
:1025B6000100000000000000000000000000000014
:1025C600000000000E0000000000000000000000F7
:1025D6000000000030A00408000000000000000019
:1025E60000000000000000003CA0040807000000F6
:1025F600597B0308F01B002000000000749B0408B0
:1026060003000000517C0308E41B002000000000CA
:1026160048A0040803000000517C0308D81B0020D2
:102626000000000050A0040803000000517C0308CD
:10263600CC1B00200000000058A004080700000082
:102646003D7B0308C41B002000000000B45A0408A8
:1026560003000000517C0308B81B002000000000A6
:1026660064A0040803000000517C0308AC1B002092
:102676000000000070A0040803000000517C03085D
:10268600A01B00200000000078A004080300000042
:10269600517C0308941B00200000000040980408A9
:1026A6000100000000000000000000000000000023
:1026B600000000000E000000000000000000000006
:1026C6000000000005620308D5610308F81B00201E
:1026D6000D65030800000000841C0020A1600308AB
:1026E6007D600308101D00200000000000000000AF
:1026F600C41D0020E5640308757B0308641E0020E2
:1027060084A0040800000000000000000000000093
:102716000000000090A0040803000000517C03089C
:10272600841F00200000000098A004080300000099
:10273600517C0308781F002000000000148704085D
:1027460003000000517C03086C1F002000000000FD
:10275600A4A0040803000000517C0308601F0020A9
:1027660000000000B0A0040803000000517C03082C
:10277600541F002000000000B8A00408020000005A
:10278600357E03080000000000000000449F040896
:1027960002000000357E0308010000000000000072
:1027A600689D040802000000357E03080200000050
:1027B60000000000000000000E0000000000000005
:1027C600000000000000000056AD002088136F17BF
:1027D6000100000058AD002088136F1700000000AC
:1027E600C0A0040800000000000000000000000077
:1027F60000000000D0A0040808000000000000004F
:102806006420002004000000DCA00408080000008A
:10281600000000005820002000000000049C04086E
:1028260004000000617803080000000000000000BA
:1028360040980408010000000000000000000000AD
:1028460000000000000000000E0000000000000074
:10285600000000000000000054AD002088136F1730
:1028660001000000D896002088136F1700000000B2
:10287600755F0308000000007020002021B10020D1
:102886000100000050510408DA9600200100000003
:102896005C510408D0960020020000006451040830
:1028A6008AF50020000000000000000088F50020E6
:1028B600000000000000000086F500200000000077
:1028C6000000000084F50020000000000000000069
:1028D60082F50020000000000000000080F50020C6
:1028E60000000000000000000C02002000000000B4
:1028F6000000000053AD00200200000070510408E3
:1029060018A10408000000000000000000000000FC
:1029160000000000D0A0040808000000000000002D
:10292600F420002004000000DCA0040808000000D9
:1029360000000000E820002000000000049C0408BD
:1029460004000000455F03080000000000000000CE
:10295600409804080100000000000000000000008C
:1029660000000000000000000E0000000000000053
:10297600000000000000000028A10408000000007C
:1029860000000000000000000000000038A104085C
:102996000D000000B1790308242100200400000086
:1029A60044A104080D0000009D5F030818210020C3
:1029B6000400000050A104080D000000757903080A
:1029C6000C210020000000005CA1040803000000A8
:1029D600296B0308002100200800000068A10408F4
:1029E60003000000517C030828240020000000009A
:1029F60040980408010000000000000000000000EC
:102A060000000000000000000E00000000000000B2
:102A160000000000000000003898040800000000D4
:102A2600000000000000000000000000AA97040853
:102A36000400000079780308000000000000000090
:102A4600409804080100000000000000000000009B
:102A560000000000000000000E0000000000000062
:102A66000000000000000000BCA1040800000000F7
:102A760000000000000000000000000008890408B3
:102A86000D0000000000000084210020040000006A
:102A9600CCA10408080000000000000078210020F6
:102AA60004000000D8A1040808000000000000008F
:102AB6006C21002004000000E0A1040808000000CA
:102AC600000000006021002004000000E8A10408C6
:102AD600080000000000000054210020040000004F
:102AE600F0A10408080000000000000048210020B2
:102AF60004000000F8A1040808000000000000001F
:102B06003C2100200400000000A204080800000088
:102B16000000000030210020040000004098040856
:102B2600010000000000000000000000000000009E
:102B3600000000000E000000000000000000000081
:102B4600000000005D5F03080000000090210020E7
:102B56000000000000000000082200200000000025
:102B660000000000A8220020D696002004000000E5
:102B76007C510408D4960020E0150C1700000000D4
:102B8600D39600200800000018440408D2960020BE
:102B9600050000009051040800000000000000003D
:102BA600F82200200403090412010002EF0201408A
:102BB60083045632000201020301000012010002E2
:102BC6000202004083044057000201020301000094
:102BD60009024300020100C032090400000102029A
:102BE600010005240010010524010001042402024D
:102BF6000524060001070582030800FF09040100F9
:102C0600020A0000000705010240000007058102D4
:102C160040000000FF000000080000000000000166
:102C2600000000000000000000000000CDAC03081A
:102C3600C9AC0308C5AC0308B9AC0308B5AC0308B6
:102C4600C1AC0308BDAC030841AD030835AD0308AC
:102C56000DAD030821AD0308F9AC0308E5AC030884
:102C6600D1AC030801010000006002401060024080
:102C76000000000000000000000B00000000000043
:102C860000000000000000000060024028600240D2
:102C96000100000000000000060C0000000000001B
:102CA600000000000000000000600240406002409A
:102CB6000200000000000000100D000000000000EF
:102CC6000000000000000000006002405860024062
:102CD6000300000000000000160E000000000000C7
:102CE600000000000000000000600240706002402A
:102CF6000400000000000000200F0000000000009B
:102D060000000000000000000060024088600240F1
:102D16000500000000000000261000000000000072
:102D2600000000000000000000600240A0600240B9
:102D36000600000000000000301100000000000046
:102D4600000000000000000000600240B860024081
:102D56000700000000000000362F00000000000001
:102D66000000000000000000006402401064024001
:102D76000000000000000000003800000000000015
:102D860000000000000000000064024028640240C9
:102D960001000000000000000639000000000000ED
:102DA6000000000000000000006402404064024091
:102DB6000200000000000000103A000000000000C1
:102DC6000000000000000000006402405864024059
:102DD6000300000000000000163B00000000000099
:102DE6000000000000000000006402407064024021
:102DF6000400000000000000203C0000000000006D
:102E060000000000000000000064024088640240E8
:102E1600050000000000000026440000000000003D
:102E2600000000000000000000640240A0640240B0
:102E36000600000000000000304500000000000011
:102E4600000000000000000000640240B864024078
:102E560007000000000000003646000000000000E9
:102E660000000000000000000000803F99CC02082E
:102E760099D1020815CD020829A8020861D30208D3
:102E860039A8020855A8020801A80208F1A70208F5
:102E960000000000000000002C27002000000000B9
:102EA600000000000000000000000000000000001C
:102EB600000000000000000000000000000000000C
:102EC60000000000000000000000000000000000FC
:102ED60000000000000000000000000000000000EC
:102EE60000000000000000000000000000000000DC
:102EF6000000000000000000000000004300000089
:102F060000000000000000000000000000000000BB
:102F16000000000000000000000000004300000068
:102F2600000000000000000000000000000000009B
:102F36000000000000000000000000004300000048
:102F4600000000000000000000000000000000007B
:102F56000000000000000000000000004300000028
:102F6600000000000000000000000000000000005B
:102F76000000000000000000000000004300000008
:102F8600000000000000000000000000000000003B
:102F960000000000000000000000000043000000E8
:102FA600000000000000000000000000000000001B
:102FB60000000000000000000000000043000000C8
:102FC60000000000000000000000000000000000FB
:102FD600000000000000000000000000F9090408DD
:102FE60001090408000000009AA30408A697040833
:102FF60088640408886404088864040888640408EB
:1030060088640408886404088864040888640408DA
:1030160088640408FFFFFFFFFFFFFFFFFFFFFFFFBE
:10302600FFFF000001004153434949000000000032
:10303600000000000000000000000000000000008A
:103046000000000000004153434949000000000011
:10305600000000000000000000000000000000006A
:08306600000000000000000062
:1080000038B50B4C23688BB15A68821A002A054692
:1080100004DA0BE05A68AA1A002A07DB9A68226081
:1080200018461A6890472368002BF3D138BD00BF6B
:10803000B4810020436A8269D154436A0169826B2A
:1080400001338B4228BF00234362DAB1EFF311837F
:10805000502282F31288826B1168C9070ED470B463
:108060005468FCB9D0E909518D4211D1012280F840
:108070005C20DBB283F3118870BC7047DBB283F302
:1080800011887047826DD36843F08003D3607047D6
:1080900086690E44D6600ED9691A51608562002146
:1080A00080F85C10116841F00101DBB2116083F3CC
:1080B000118870BC70470569691A51608462EEE7E7
:1080C000034610B4446BD968406954B1DA6C8C1A19
:1080D000013A005D5DF8044B08BF0A46C0B2DA649D
:1080E00070471A6A805C01328A4228BF2246C0B2B9
:1080F0001A625DF8044B7047836B13B190F85C0013
:108100007047D0E90903181AB0FA80F040097047A7
:10811000D0E909120369914238BFC9188A1A816BE4
:10812000013B19B149680A449A4201D2981A704732
:1081300000207047436B43B1C26C5B689A4291BFA9
:10814000981AC0689B1AC0187047D0E907239A4252
:108150002FBFD01AC0688018C01A70470A4B30B5BC
:1081600003F1140493F900205D78072AC8BF143A7C
:10817000811804338D7213F8025C855413F8012CB6
:108180000A759C42EED130BD5020040803682DE9E9
:10819000F041DD691DB12B46BDE8F0411847002ACA
:1081A000174611DD04460E460F4400E023689B6825
:1081B000204698470028F9D0236816F8011B1B6851
:1081C00020469847BE42F1D1BDE8F0810023272226
:1081D000027043708370C370704700BF2DE9F04791
:1081E0008C4A8D4B12781C78D207064648D58B4DA9
:1081F000012C00F091801ED3022C40F09B80884916
:10820000884A09881288884F914201D901241C703C
:10821000EB7AFBB12B89EBB1844B1B78D3B112F015
:10822000A5F8002800F0E2802B7B83422CBF0123BD
:1082300000233B700FE0DFF8E8C17B4F7C4CBCF8BB
:1082400000002288697B521A8242DFDAEB7A00242E
:10825000002BDFD13B782A79632A07D87549022C95
:10826000087800F0B880002840F0A0807249AA7A0F
:108270009C4238BF1C460C70002A44D1BDE8F087F0
:10828000DFF89CC1654DBCF80000BCF8021095F801
:1082900003E06A4F411A0029A4F10302B8BF494222
:1082A000704597F80080D2B211D32F7887420ED351
:1082B000012A45D9B8F1020F9AD15C48604A00788A
:1082C00090800229CCBF00210121D18090E7B0EB42
:1082D0004E0FEDDC012A40F28C800229EADC0324F7
:1082E000514F524852494F4A1C70B8F1020F4FF09B
:1082F00000033C7003700B80138089D1504A012128
:108300009380D18084E7012C6BD0022CB6D107205A
:10831000BDE8F0472AF086B9424A41491288687B95
:108320000988121A914207DD414A12888A423CBFED
:1083300000241C703C4F6BE702241C703A4F67E727
:108340000229B7DC95F800E090FBFEFE0EF1010E6D
:10835000BEF1080FDFF8D4A0AA786978DFF8C490DE
:10836000334C314FA8BF4FF0080E8AF800E01FFAD7
:108370008EFA11FB0AF112FB0AF2DFF8B8A0A9F895
:10838000001092B200214FF06409B8F1020F228070
:1083900039701970CAF804108AF801907FF452AF4E
:1083A000274A0121A2F804E0D18048E74868301A42
:1083B000244EB042C8BF4A703FF758AFC2F16402C2
:1083C000214E00FB02F086FB0062C017A0EBA2501A
:1083D000643048704AE70028E8D101274E600F70EA
:1083E000ECE70820BDE8F0472AF01CB902233B70F7
:1083F00031E7032C7FF471AFB8F1020F9AD10B4A29
:108400000F4B12789A800229CCBF00210121D9801C
:10841000054FFDE6C0940020FC2E00202C93002088
:1084200038950020002F00205C2F00203E95002072
:10843000FE2E0020042F00202A9300201DC80020BB
:1084400020C800207F9698006BCA5F6B30B5044649
:10845000806D61718389A26823F400531B041B0C97
:10846000838185B0A379009213F0040F4FEA0332A1
:108470004FEA03230CBF00254FF4805503F48063BB
:1084800002F40052ADF80450ADF80830002511F0A8
:108490000103ADF80620ADF80C501CD1ADF80A3040
:1084A00008238A07694648BFADF80A3025F0CEF8A0
:1084B000A37913F0080FA36D9A8A05BF22F0080272
:1084C000120442F00802120C9A829A8942F4005275
:1084D0009A8105B030BD0423ADF80A300C23E0E7E3
:1084E00030B50446806DA160838923F400531B04DA
:1084F0001B0C8381A37985B013F0040F009108BF92
:108500000025617918BF4FF48055ADF804501A0367
:1085100000251B0203F48063ADF80A50ADF80C503F
:10852000CD07ADF8083002F4005244BF0423ADF883
:108530000A30ADF806204CBF0C2308238A07694691
:1085400048BFADF80A3025F081F8A37913F0080F81
:10855000A36D9A8A05BF22F00802120442F00802B5
:10856000120C9A829A8942F400529A8105B030BD69
:1085700010B40B4B0B4A1C7801238340234052F864
:10858000200031B9B3FA83F149095DF8044B1DF0BD
:10859000C9BD191C18BF01215DF8044B1DF0C2BDF7
:1085A000E4D90020E8D9002002280749074B084AEF
:1085B00028BF0220087000EB8001013003EB01139B
:1085C000C0B213602AF04AB928DA0020EAAD0020D0
:1085D000D498002008B501210220FFF7C9FF094BFC
:1085E0001B7803F00503052B08D000210120FFF7BD
:1085F000BFFF00210846FFF7BBFFFEE70BF0DCF9E9
:10860000F3E700BF6838002008B519F04FFF21F0EC
:1086100077F9BDE8084019F0EFBE00BF10B5484B30
:108620009A78013A1F2A55D846490A44127D5A833E
:10863000002A14BF302220229989D8891A838842BF
:1086400024BF00229A81598A1A8A914224BF0022AB
:108650001A82D9783C4A92F8542071B107290CD07B
:108660003A4C012000210A2A20709870D9715ED0FE
:108670000C2A5FD1DFED367A0AE00A2AD9792DD0AB
:10868000DFED347A9FED347A0C2A18BFF0EE477A8A
:108690009FED327A002918BFF0EE477A304CA2786D
:1086A000062A97BF2749DFED2D6A01EB8201D1ED44
:1086B0000D6A2179A9B1013A032A0AD8B7EE000A56
:1086C00080EE260A38F008FC2388984228BF184616
:1086D000208010BD01225A833022ADE7DFED217AE0
:1086E000D6E79B78194907EE103A0A78B8EEC77AB0
:1086F00067EE277A07EE102AB8EEC77A27EE277AB8
:10870000F4EEC76AF1EE10FAE3DD86EEA77AFDEE2D
:10871000C77A17EE903A102BA8BF1023012BB8BFD1
:108720000123DBB29A4238BF1A460A7010BDDFED52
:108730000E7AADE70A2A9DD1DFED0B7AAEE700BFD6
:10874000D8D2002050200408F0CA0020368500202E
:108750006F12833A0AD7A3396F1203396F120338A5
:1087600068DC00205304E9380F506E3A2DE9F84FC9
:1087700019F09CFEDFF8FC82A14B434525D2DFF8BF
:10878000F892A04F03F114069A464C4625886219C8
:1087900085B1BA420ED2052D0CD936F8143C618849
:1087A000C3F30B03994200F0D38014462588621965
:1087B000002DEED156F8101C50460AF1140A29F08B
:1087C00015FBC24506F11406DFD38F4A1378A3F1D7
:1087D0001701022909D98D4911F8330028B101EB9D
:1087E000C3035B680BB917231370894A5378052BB1
:1087F00000F2D58003EB8300864903EB400301EBD5
:108800008303117884480229036000F2D180834BEE
:1088100001EB810103EB0113998C5A8C804C91423E
:10882000236001D300225A847E4B9A78042A00F0F8
:10883000C38032B91A88B2F5F07F84BF4FF4F0726A
:108840001A80794DFFF7EAFE2B68784A1A40002A11
:1088500000F0D180D80700F1C980590400F1C1802F
:108860001A0700F1B9809B0400F1AF8033F0D6FB0A
:1088700010B96F4829F036F940201DF041FE4FF441
:1088800000701DF03DFE6B486B4D1DF039FE4FF43E
:1088900000101DF035FE4FF000701DF031FE4FF05E
:1088A00080601DF02DFE0BF0F9FB302200212846E0
:1088B00038F0E0F820680AF0BBFC2068286331F04B
:1088C000BFF95E4B5E4A1E7932F8060C5D4B5E4C7A
:1088D0006A636421C82211FB062100222080C3E9BB
:1088E0000112C3E90322C3E90522DA6183F82020DB
:1088F00083F8212008B119F013FB544B9FED545A13
:108900001B88544A9FED546A5079544906EE903AB8
:10891000F8EEE66A1388C5EE265A07EE103A538839
:108920001279C1ED005A07EE903AB8EEC77AF8EE28
:10893000E77A4B4B27EE067A67EE867A18725A7200
:1089400083ED017AC3ED007ABDE8F84F19F054BD0C
:1089500063799B077FF429AF56F8101C94F804B094
:10896000504629F043FA36F8143CBBEB133F07D0CE
:108970000AF1140AC24506F11406FFF406AF24E713
:1089800036F8123C56F8100CAA1FC3F30B039A4298
:1089900004F10601A8BF1A4637F0B2FEE8E71178E5
:1089A0001D480023537002291A4B03607FF62FAF36
:1089B00000231370194B2FE79A8AB2F57A7FBFF420
:1089C00040AF4FF47A729A823BE726481DF098FD3B
:1089D00040201DF095FD49E723481DF091FD2B68CF
:1089E00041E722481DF08CFD2B6839E720481DF037
:1089F00087FD2B6831E743F008032B602AE700BFAF
:108A00009001000800800008E4890020BC5304089D
:108A100028DA00202AAF0020D8980020EAAD0020F4
:108A2000D498002068DC002058B0002009600002C3
:108A3000B0D9002020001000F82800206C3600205B
:108A4000F2830020E8940020FC83002028370020D7
:108A5000C0C9FB4810AB002017B7D1382C37002015
:108A6000482E002009400002016000020920000297
:108A700008600002400600080240000808B519F02E
:108A800015FD20F03DFF19F0B7FCFFF76FFE012048
:108A9000BDE8084029F0E2BE2DE9F047D84C2DEDA5
:108AA000028B636820469847002800F03B81D54B35
:108AB0001B78042B00F07481B4F91A3006EE903A5A
:108AC000B4F91C3007EE103AB4F91E3007EE903AB4
:108AD000F8EEE66AB8EEC77AF8EEE77AC4ED0A6A0D
:108AE00084ED0B7AC4ED0C7AC74B1B88002B60D049
:108AF000C64B94ED0A2AD4ED0B2A94ED0C3A93ED73
:108B0000008AD3ED053A93ED090A93ED0E5AD3EDA1
:108B1000120AD3ED177A93ED011A93ED064AD3EDBD
:108B20000A1AD3ED0F5A93ED137AD3ED186AD3EDE9
:108B3000044A93ED0D6AE8EE023AA0EE225AE3EE03
:108B4000207AA1EE024AE1EEA25AE3EE076A93ED23
:108B5000038A93ED167A93ED020AD3ED0C0A93ED96
:108B60000B1AD3ED151AC4ED0A3A64EEE34AA8EEE7
:108B7000634A26EE456AD3ED143A83ED054A27EEA3
:108B8000677AE0EE024AE0EEC55AA2EE816AE7EEAD
:108B9000E16AA3EE237AC3ED064A84ED0B5AC3EDD6
:108BA0000E5A83ED0F6AC3ED176A83ED187AC4ED90
:108BB0000C7A974F974D3A886B6B002A00F0B6807D
:108BC000B2F5C87F18BFD5ED0E7A94ED0A7A0CBFC6
:108BD000DFED917AF8EEE77A4FF0000C002077EEA7
:108BE000877AC4F828C01880B7F80080FDEEE77ACD
:108BF000B8F5C87F17EE902AC5ED0E7A00F0ED802B
:108C0000D5ED0F7A94ED0B6A95ED107AD4ED0C6AE0
:108C1000C4F82CC0F8EEE77AB8EEC77A77EE867A19
:108C200037EE267AFDEEE77AB8F1010F17EE901ACB
:108C3000FDEEC77A588017EE906AC4F830C0E96339
:108C4000C5ED107A98802BD1DFF8DCC1B4F818E0BC
:108C50008CFB06A9F617C6EBE9168CFB02A98CFB68
:108C600001ACC917C1EBEC11D217DFF8C0C15980B4
:108C7000A6EB0E06C2EBE9129E801A80ACF80C003F
:108C8000ACF80E0019F012FC20F03AFE19F0B4FB1B
:108C9000FFF76CFD404629F0E1FD6B6BB7F80080F3
:108CA00008F1FF38A7F80080B3F9002094ED0B6AB3
:108CB00094ED0C7A94ED0A5A584905EE902AB3F9CE
:108CC0000220B3F9043006EE902A07EE903AF8EE4F
:108CD000E55A534B0A68D3ED003A93ED014AD3EDC0
:108CE000024AF8EEE66AF8EEE77A75EE655A76EE35
:108CF000666A77EE677AC4ED0A5A34EE266A73EE36
:108D0000A55A34EEA77A01320120C3ED005AC4ED12
:108D10000B6A83ED016AC4ED0C7A83ED027A0A6076
:108D200084F83400BDEC028BBDE8F0873D4909684A
:108D30004907B9D5B5F84410322900F0AC800029B4
:108D400078D195F86220002AAED005F1540007C80A
:108D5000354E278B86FB02ECD217C2EB2C12D21BAE
:108D600086FB00C786FB01C6C017C917C1EB2611D9
:108D7000C0EB27102D4E9A80188059800023B381B4
:108D8000F38185F8623019F091FB20F0B9FD19F0FC
:108D900033FBFFF7EBFC012029F060FD6B6B83E7F1
:108DA000B4F91A00B4F91C10B4F91E20204B07EED8
:108DB000900AF8EEE76A07EE901AB8EEE77A07EE47
:108DC000902AF8EEE77AC4ED0A6A188059809A80F2
:108DD00084ED0B7AC4ED0C7A86E694ED0B7AD4ED33
:108DE0000C7AC4F82CC0BDEEC77AFDEEE77A588045
:108DF00085ED0F7AC4F830C0C5ED107A98804FE742
:108E0000B8CA00201DC80020FC8300200084002078
:108E100092360020F828002000000000B42F002027
:108E2000B82F002070E900201F85EB51EC83002053
:108E300020C80020D5ED157A94ED0A5AD4ED0B5ACE
:108E400094ED0C6AF8EEE76AD5ED167AB8EEE77A9B
:108E5000D5ED177AF8EEE77A76EE856A37EE257A61
:108E600077EE867AFDEEE66ABDEEC77AFDEEE77A2A
:108E700000200129C5ED156AA0621A8085ED167AD9
:108E8000E0625A802063C5ED177A9A8025D00139B7
:108E9000A5F8441055E7D4ED0A6A94ED0B7AD4EDA9
:108EA0000C7A18682E4EA864FDEEE66A9888F6687B
:108EB000A5F84C00BDEEC77AFDEEE77A0020C5EDBF
:108EC000156AA0622E651A80E06285ED167A5A80D6
:108ED0002063C5ED177A9A80D9E7224885F860208B
:108EE000026885F86110520330D41F4E00203246CC
:108EF00017780B2F02F10C020BD001301828F7D194
:108F0000A86C174A1860B5F84C60286D9E80D06038
:108F1000BDE7164FD7F800E04200BEF1000F09D0C0
:108F200002EB000C06EB8C0C9EF801E09CF801C0F3
:108F3000F445E5D20244DFF840C00D4806EB820656
:108F400000223E60ACF800200260D9E7094A12789E
:108F5000032ACAD129F04AFB6B6BB5F84410CFE75E
:108F6000EC830020188B0020343C04089C36002041
:108F7000A43600202A930020A036002038B50D4CDE
:108F80000D4DAC4206D261682046143428F02EFF05
:108F9000AC42F8D31EF0CCFA084A094B094C1460D5
:108FA000002209491A705A7008480860BDE8384024
:108FB00026F09ABE9001000840060008D4980020D0
:108FC00028DA0020EAAD0020D89800202AAF00203F
:108FD00008B5FFF7D3FF19F069FA20F091FCBDE85E
:108FE000084019F009BA00BFF0B50C2934D8DFE801
:108FF00001F08A3333335F33333334333333070091
:10900000048C9689B2F802C01788744D24F48054F9
:109010002404240C0484038C8488818B23F400535F
:1090200021F4E6411B0409041B0C46EA0C06090C5A
:1090300043EA063341EA0721A8429BB2A4B289B2AF
:1090400000F09E8005F58065A84200F09980926846
:109050008480818302640384F0BD048C9589B2F816
:1090600002E017885D4E24F480742404240C0484E8
:10907000038CB0F804C0818B23F400731B0421F02F
:10908000730145EA0E041B0C090443EA0423090C8E
:10909000B0429BB21FFA8CF541EA07015BD0504CFD
:1090A000A04258D0926885808183C2630384F0BD5A
:1090B000048C9589B2F802E0B2F800C0474E24F063
:1090C00010042404240C0484038C8788018B23F06F
:1090D000200321F4E6411B0409041B0C45EA0E049D
:1090E000090C43EA041341EA0C21B0429BB2BFB21F
:1090F00089B25BD03A4CA04258D0926887800183F5
:1091000082630384F0BD048C9589B2F802C017888D
:10911000324E24F001042404240C0484018C84883D
:10912000038B21F0020123F0730309041B04090CD3
:1091300045EA0C051B0CB04241EA0501A4B243EA22
:10914000070324D0264DA84221D09268848003834F
:1091500042630184F0BDD489168A578A23F40063E0
:1091600043EA04234FF6FF341C40938825F440550E
:109170003E4344EA032345EA06149BB2A5B291E7B5
:10918000158A24F4804444EA8514A4B25FE7D689A2
:10919000158A578A21F008013143968824F44074D7
:1091A00021F004013D4331432C43CEE7D489168A94
:1091B000B2F812C023F0800343EA04134FF6BF74E1
:1091C0001C40938827F4406546EA0C0644EA0313E2
:1091D00045EA86049BB2A7B28FE700BF00000140BA
:1091E000000401402DE9F84FA022904C9048914D89
:1091F000DFF860A2904FDFF86082DFF86092002114
:1092000037F038FC8D48DFF858C2DFF858E204F137
:10921000FC06A346DBF80030AB4200F0E280B3F17D
:10922000804F00F0E080BB4200F0DF80634500F03B
:10923000EA80734500F0E980434500F0E8804B4543
:1092400000F0E7807E4A934200F0E58002F570521C
:10925000934200F0E28002F58062934200F0DF80EA
:1092600002F58062934200F0DC80A2F598329342CE
:1092700000F0D98002F58062934200F0958002F5FB
:109280008062934208BF0D2300F08F800BF1240B06
:109290005E45BFD16B4E6C4D4FF003094FF0020895
:1092A000A379002B7AD023791F09013F032F03F004
:1092B0000F0373D836F8170040FA03F2D2076DD5C2
:1092C0004FF0010A0AFA03F3013B184036F010FF91
:1092D0005E4BDB5D184415EBC0075FD055F83030AE
:1092E0005B48217A03F13F4202F57E02920A825CDA
:1092F00002F01F005209032A0AFA00FA7DD0042A5C
:1093000075D0022A04D14D48426C4AEA02024264F6
:10931000B7F804C0BCFA8CF2C2F11F0292B2D008B6
:1093200003EB800002F00702076A92004FF00F0E75
:109330000EFA02FE27EA0E070762076A01FA02F236
:109340003A4302624FF0010E00220EFA02F737EAAA
:109350000C0120D15000D3F800A009FA00F1C94354
:109360000AEA010AC3F800A0D3F800A008FA00F046
:1093700040EA0A0018609868084098609868986009
:10938000586820EA07075F6058685860D86801404D
:10939000D960D968D9600132102AD6D12434A345C6
:1093A0007FF47EAFBDE8F88F0C230AEBC3030121E5
:1093B0001B7903F01F025B09032B01FA02F208D0AC
:1093C000042B0AD0022B7FF461AF416C0A43426444
:1093D0005CE7016C0A43026458E7016B0A430263CD
:1093E00054E70023E1E70123DFE70223DDE7134829
:1093F000026B4AEA020202638AE71048026C4AEAF8
:109400000202026484E70323CFE70423CDE70523A8
:10941000CBE70623C9E70723C7E70823C5E70923E6
:10942000C3E70A23C1E70B23BFE700BFE0510408ED
:109430005C2E002000000140000400400038024083
:1094400000040140145304087CC800201053040891
:10945000085304084C530408001000400014004056
:1094600000080040000C00402DE9F8432F4D2B8AE6
:10947000B5F80C8018EA030827D02D4E4FF00047AE
:10948000B8FA88F327FA03F2D24391B21B3B08EAF9
:1094900002082982042B15D8DFE803F0352B2219A6
:1094A0000300D6F89C30002B37D1EB6A1FFA83F902
:1094B000D6F8984034B123682046494698476468F6
:1094C000002CF8D1B8F1000FDAD1BDE8F883B06F05
:1094D000696B036889B29847B8F1000FD0D1F4E7FF
:1094E000F06FA96B036889B29847B8F1000FC7D134
:1094F000EBE7D6F88000E96B036889B29847B8F1CA
:10950000000FBDD1E1E7D6F88400296C036889B269
:109510009847B8F1000FB3D1D7E703F1FF39002323
:109520001FFA89F9C6F89C30C2E700BF0018004056
:109530005C2E00202DE9F8432C4D2B8AB5F80C80C9
:1095400018EA030825D02A4E4FF00047B8FA88F3EE
:1095500027FA03F2D24391B21B3B08EA02082982A0
:10956000042B13D8DFE803F0322920170300736FB0
:10957000002B34D1EB6A1FFA83F9346F34B12368BE
:109580002046494698476468002CF8D1B8F1000F8E
:10959000DCD1BDE8F883306D696B036889B2984708
:1095A000B8F1000FD2D1F4E7706DA96B036889B2EE
:1095B0009847B8F1000FC9D1EBE7B06DE96B0368CC
:1095C00089B29847B8F1000FC0D1E2E7F06D296C7D
:1095D000036889B29847B8F1000FB7D1D9E703F112
:1095E000FF3900231FFA89F97367C6E700040140B9
:1095F0005C2E00202DE9F8432C4D2B8AB5F80C8009
:1096000018EA030825D02A4E4FF00047B8FA88F32D
:1096100027FA03F2D24391B21B3B08EA02082982DF
:10962000042B13D8DFE803F0322920170300736FEF
:10963000002B34D1EB6A1FFA83F9346F34B12368FD
:109640002046494698476468002CF8D1B8F1000FCD
:10965000DCD1BDE8F883306D696B036889B2984747
:10966000B8F1000FD2D1F4E7706DA96B036889B22D
:109670009847B8F1000FC9D1EBE7B06DE96B03680B
:1096800089B29847B8F1000FC0D1E2E7F06D296CBC
:10969000036889B29847B8F1000FB7D1D9E703F151
:1096A000FF3900231FFA89F97367C6E700040140F8
:1096B0005C2E00202DE9F8432C4D2B8AB5F80C8048
:1096C00018EA030825D02A4E4FF00047B8FA88F36D
:1096D00027FA03F2D24391B21B3B08EA020829821F
:1096E000042B13D8DFE803F0322920170300F36CB2
:1096F000002B34D1EB6A1FFA83F9B46C34B12368C0
:109700002046494698476468002CF8D1B8F1000F0C
:10971000DCD1BDE8F883B06A696B036889B2984709
:10972000B8F1000FD2D1F4E7F06AA96B036889B2EF
:109730009847B8F1000FC9D1EBE7306BE96B0368CC
:1097400089B29847B8F1000FC0D1E2E7706B296C7D
:10975000036889B29847B8F1000FB7D1D9E703F190
:10976000FF3900231FFA89F9F364C6E700080040B7
:109770005C2E00202DE9F8432C4D2B8AB5F80C8087
:1097800018EA030825D02A4E4FF00047B8FA88F3AC
:1097900027FA03F2D24391B21B3B08EA020829825E
:1097A000042B13D8DFE803F0322920170300736A73
:1097B000002B34D1EB6A1FFA83F9346A34B1236881
:1097C0002046494698476468002CF8D1B8F1000F4C
:1097D000DCD1BDE8F8833068696B036889B29847CB
:1097E000B8F1000FD2D1F4E77068A96B036889B2B1
:1097F0009847B8F1000FC9D1EBE7B068E96B03688F
:1098000089B29847B8F1000FC0D1E2E7F068296C3F
:10981000036889B29847B8F1000FB7D1D9E703F1CF
:10982000FF3900231FFA89F97362C6E7000001407F
:109830005C2E00202DE9F8432C4D2B8AB5F80C80C6
:1098400018EA030825D02A4E4FF00047B8FA88F3EB
:1098500027FA03F2D24391B21B3B08EA020829829D
:10986000042B13D8DFE803F0322920170300736AB2
:10987000002B34D1EB6A1FFA83F9346A34B12368C0
:109880002046494698476468002CF8D1B8F1000F8B
:10989000DCD1BDE8F8833068696B036889B298470A
:1098A000B8F1000FD2D1F4E77068A96B036889B2F0
:1098B0009847B8F1000FC9D1EBE7B068E96B0368CE
:1098C00089B29847B8F1000FC0D1E2E7F068296C7F
:1098D000036889B29847B8F1000FB7D1D9E703F10F
:1098E000FF3900231FFA89F97362C6E700000140BF
:1098F0005C2E0020F0B506683F4CB30AA3426CD042
:1099000065D93E4CA3425AD00134A34256D17027A8
:1099100002254379B6F80CE0022023FA00F4A040B7
:109920001FFA80FCA8002346441903EB4403344C7F
:10993000002955D04CEA0E0C03F1040E44F8231014
:1099400044F82E20A6F80CC0E319EFF31181502241
:1099500082F31288421904EBC202D2F810C0BCF1A3
:10996000000F03D044F807C013690433421904EB15
:10997000C202576917B11F6053690433421904EBDF
:10998000C202976917B11F6093690433421904EB4F
:10999000C202D76917B11F60D36904330027CAB266
:1099A0001F6082F31188284404EBC004236A4BB97A
:1099B000B38923F001031B041B0CB381F0BD2027E6
:1099C0000025A6E7B38943F00103B381F0BD043C51
:1099D000A342F3D1482701259BE79827032598E761
:1099E0002EEA0C0C03F1040EA6F80CC044F8231068
:1099F00044F82E20A8E700BF060010004000100029
:109A00005C2E002010B503687C487D4C01398342F0
:109A100082B0246889B200F0AF80A0F580608342F4
:109A200000F0AA8000F58040834200F0818000F5BC
:109A3000806083427CD000F58060834278D01888B3
:109A40006408B4FBF2F4013CA4B282B2B3F1804FDB
:109A50000AD06C48834207D000F58060834203D06F
:109A600000F58060834202D122F0700292B2664813
:109A7000834200F08F8000F58060834200F0938085
:109A800022F4407200F56C4092B283421A80D9628F
:109A90001C8540F09180012100221A869982198844
:109AA0005A4841F001018342198049D0B3F1804FF7
:109AB00000F08D80534A934200F08B8002F5806263
:109AC000934200F0888002F58062934200F0858026
:109AD00002F58062934200F0828002F58062934238
:109AE0007FD002F5704293427DD002F570529342CE
:109AF0007BD002F58062934279D002F58062934276
:109B000077D0A2F59832934275D002F580629342E5
:109B100015D002F58062934208BF0D2210D002A832
:109B20004FF0012340F8043D23F01CFF02B010BDAC
:109B30001888B4FBF2F4013CA4B282B286E70C228E
:109B4000334B03EBC20201A854798DF80440012382
:109B500000228DF805308DF807308DF8062023F0AF
:109B600001FF1B2C0FD02E2CE0D12A4B019301A812
:109B700023F0F8FE02B010BD1888B4FBF2F4013CEB
:109B8000A4B282B270E7244B019301A823F0EAFE4D
:109B900002B010BD01201A80D9621C8598821A88F3
:109BA00002431A8086E701201A80D9621C859882B8
:109BB0001A8802431A8079E7104A93423FF46BAF48
:109BC00001229A821A8842F001021A806EE701226D
:109BD000B6E70222B4E70322B2E70422B0E7052287
:109BE000AEE70622ACE70722AAE70822A8E7092287
:109BF000A6E70A22A4E70B22A2E700BF0004014067
:109C000010E9002000040040001000400000014066
:109C10004C5304082C010001190100012B4B984200
:109C20003CD0B0F1804F3BD0A3F57C43984239D073
:109C300003F58063984237D003F58063984235D0AE
:109C400003F58063984233D003F58063984233D0A4
:109C500003F57043984231D003F57053984229D0F0
:109C600003F5806398422BD003F58063984229D096
:109C7000A3F59833984227D003F58063984207D024
:109C800003F58063984208BF0D2202D00020704780
:109C90000C220F4B03EBC203187970470022F8E740
:109CA0000122F6E70222F4E70322F2E70422F0E7BA
:109CB0000522EEE70822ECE70622EAE70722E8E7BA
:109CC0000922E6E70A22E4E70B22E2E7000001406E
:109CD0004C5304082DE9F04F83B08E4DDFF84082DD
:109CE00001908B460BF1FF339B46013300F00E8150
:109CF00032F098FE884C894FDFF828C24FF4FA7A88
:109D00004FF0100E4FF47A76DCF80430C3F30803FA
:109D1000002B40F0DF80EFF31183002B40F0DA805E
:109D20002168AA6800BF23689942F9D1386806FB08
:109D300000F39A1AB2FBF0F206FB0121DCF80430C2
:109D4000C3F30803002B40F0A680EFF31183002B30
:109D500040F0A1802368A86800BF22689342F9D12F
:109D6000D7F8009006FB09F2101AB0FBF9F006FBD9
:109D700003035B1AB3F57A7FE0D3BAF1010AC3D1CA
:109D8000019B581CC0B232F0AFFCDFF898C1DCF880
:109D900004304FF47A7AC3F3080356464FF0100E9E
:109DA000002B38D1EFF31183002B34D12168AA683E
:109DB00000BF23689942F9D1386806FB00F39A1A6C
:109DC000B2FBF0F206FB0121DCF80430C3F3080318
:109DD000002B41D1EFF31183002B3DD12368A868FC
:109DE00000BF22689342F9D1D7F8009006FB09F230
:109DF000101AB0FBF9F006FB03035B1AB3F57A7F88
:109E0000E2D3BAF1010A3FF46DAFDCF80430C3F3DA
:109E10000803002BC6D0EFF311828EF31288A868D6
:109E20002B68D90303D50123C8F80030A86823683C
:109E3000D8F80010D2B282F311883A68194406FBB0
:109E400002F31B1AB3FBF2F306FB0131DCF804301A
:109E5000C3F30803002BBDD0EFF311808EF31288FB
:109E6000D5F808902B68DB0304D50123C8F800302F
:109E7000D5F808902368D8F80020C0B280F3118884
:109E80003868134406FB00F2A2EB0902B2FBF0F2C1
:109E900006FB0323B1E7EFF311808EF31288D5F8A8
:109EA00008902B68DB0304D50123C8F80030D5F8EF
:109EB00008902368D8F80020C0B280F31188386871
:109EC000134406FB00F2A2EB0902B2FBF0F206FB20
:109ED00003234EE7EFF311828EF31288A8682B68F4
:109EE000D90303D50123C8F80030A8682368D8F83F
:109EF0000010D2B282F311883A68194406FB02F3CB
:109F00001B1AB3FBF2F306FB013117E703B0BDE800
:109F1000F08F00BF10E000E010C8002008CA002049
:109F200004CA002000ED00E0204B5B68C3F3080387
:109F300030B4BBB9EFF31183A3B91D4A1D481368B0
:109F4000846800BF11688B42F9D11B4A11684FF435
:109F50007A7202FB01F0001B30BCB0FBF1F002FB97
:109F600003007047EFF31182102383F31288114925
:109F7000124D8C680B68DB0344BF01232B600C4B34
:109F800048BF8C681B682868D2B282F311880A4ADD
:109F900011684FF47A72184402FB01F31B1B30BCAA
:109FA000B3FBF1F302FB0030704700BF00ED00E0AF
:109FB00010C8002010E000E008CA002004CA0020F9
:109FC0002DE9F04F2DED028B4A4C9DB02378069081
:109FD00043B1DFF860A1DAF80C305046984780F0C2
:109FE00001002070444B1A780592002A00F0E182AB
:109FF000069A424942480C7802F59C4620360022D7
:10A0000006601A70002C00F0EA823E4B069A1B682C
:10A01000DFF824B19A423C4B3C4A089207931A68F5
:10A0200040F2CC82013C3A4B0C7002F480520A930D
:10A03000002A40F0CA82374B1B78022B01F02084A3
:10A04000042B01F0D383012B01F08A83324B069954
:10A050000A9A9942927801F24181002A41F04281A4
:10A060002E4B0993079BBBF906401D68EB0401F1D9
:10A07000F281089B5A8B6423A242A4EB0204CCBF5A
:10A0800000260126C2F5FA6203FB04F393FBF2F308
:10A09000642BA8BF642323EAE373DBB2099A117827
:10A0A0001F4A126812F0805201F0010100F0F8829C
:10A0B000002900F0F882089890F82200984241F2B6
:10A0C0000085002E40F0F682164C94F8F00000282F
:10A0D00040F0F082144C1548246894F82D40002775
:10A0E000076047608760002C40F0E48210480470ED
:10A0F000E3E200BF9C8200207E820020EC890020E9
:10A10000A0820020E889002070E9002084D9002086
:10A11000E89400203E800020404B4C00C09400207A
:10A1200034880020F8280020D4980020B483002030
:10A13000FC360020DCB3002034F500209DF86100DF
:10A140009DF869109DF860509DF868309DF86A2070
:10A150000C9F41409DF862008DF861106B404240B9
:10A160008DF860309DF86B009DF863308DF86220AB
:10A1700043408DF86330664B664A1B7899E80300CC
:10A1800082E80300002B40F05A84634B1E78002EB7
:10A1900001F0E281614B0C935E4801211DF0BAF998
:10A1A000069B1D88002840F063840A9BDB78002B07
:10A1B00040F05E845A4C069E25F001039BB2AB42F0
:10A1C000338009D0574B41F20241FF2219800E2003
:10A1D0009A7028F027FA35884E4802211DF09AF926
:10A1E0002BB2002800F04D8423F001039BB2069EA1
:10A1F000AB42338009D04B4B41F20241FF22198020
:10A200000E209A7028F00EFA3588AE0742F11180C0
:10A21000DFF824A1444B9AF800105868AD0701F00C
:10A22000020100F08284003118BF01211BF07AFF87
:10A23000242138481DF06EF930B9099A137859076E
:10A2400044BF23F0040313702368069A13F00A0F27
:10A2500015881DD003212F481DF05CF9002801F05E
:10A260005D836A0741F1AF832A4807211DF052F947
:10A27000002801F040836B0641F1C2830C21254880
:10A280001DF048F9002841F01E83069A23681588BE
:10A290009E0601F13482254C1E4808211DF03AF932
:10A2A000002800F0AF8545F48073069AAB42138016
:10A2B00008D01C4B41F20241FF2219800E209A70F7
:10A2C00028F0B0F91A4B1B78082B00F0DC850E2B18
:10A2D00000F0D985079B1B68580561D5154B1B7984
:10A2E000002B00F0B08316210A481DF013F9002856
:10A2F00040F0AE8325F09CF9012028F097F8002863
:10A300004ED0DFF83880059400254FF0D0091AE0D0
:10A310007EDC002034880020E0960020D8980020C1
:10A32000DC940020908C0020E8D90020C494002008
:10A33000E48900209C920020E4D9002020F2002033
:10A34000DDB2032D2BD009FB05F76B1C58F8076015
:10A35000002EF5D1032290F9023002960192C278C4
:10A36000BF4951F822200092184632463346012157
:10A3700027F0E0FE044605EB450005EB800008EB06
:10A38000001044B131460430CC2236F073FB013565
:10A3900048F80740EDB232F023FE0028D1D1059CE9
:10A3A000099B1D7815F0010500F0DA83AD4B012201
:10A3B0001A700C9BAC481B68BBF9061093F82B2055
:10A3C00001260670002A40F09483DA898A4240F31D
:10A3D0006C87A64B4FF07E521A600B9F089B97F933
:10A3E00004201E8BBBF90030387897F801C0002A92
:10A3F000A3EB060714BF01224FF0FF32002FB8BFB6
:10A400007F42B7F5FA7FA8BF4FF4FA778742C6BFFD
:10A410003F1A07EE907ADFED967ABBF90270C8BF5B
:10A42000F8EEE77A9E42C4ED007AA7EB0603C4BFBC
:10A43000F1EE677AC4ED007A002BB8BF5B42B3F54A
:10A44000FA7FA8BF4FF4FA739842BABF1B1A07EEFF
:10A45000903ADFED877ABBF90400B8BFF8EEE77AEF
:10A46000BE42A0EB0603C4ED017AC4BFF1EE677AE9
:10A47000C4ED017A002BB8BF5B42B3F5FA7FA8BFE9
:10A480004FF4FA739C4580F23183A3EB0C0302FB7B
:10A4900003F307EE903AF8EEE77A079BC4ED027AF1
:10A4A00086421A687348C4BFF1EE677AC4ED027A37
:10A4B00012F48052077800F0F882B1F5FA6FA8BF65
:10A4C0004FF4FA61B1F57A7FB8BF4FF47A71A1F514
:10A4D0007A71002F41F03E82674F684887FB013C4C
:10A4E000CB17C3EB6C1303F1010C6FF0630E30F963
:10A4F0001CC030F913000EFB0313ACEB000103FB8F
:10A5000001F387FB0317DB17C3EB671303441BB28D
:10A5100007EE903AB8EEE78A84ED038A002A40F00D
:10A520008184069B1B885A063ED59B073CD0544B22
:10A5300094ED004A93ED022A93ED037AD3ED012ABC
:10A54000D4ED017A93ED005AB1EE473AF1EE423A7A
:10A5500023EEC46A64EE034AF1EE621AA7EEA16A22
:10A56000E7EE854A63EE675A67EEA37AE4EE055A92
:10A5700062EE866A27EE247AE4EE217AE5EE246A1A
:10A58000A5EE257AF1EE677AE2EE276AA2EEA77AC7
:10A59000F0EE477AB0EE667AA3EE257AE3EE867A9D
:10A5A00084ED017AC4ED007A002D40F0AE820AF00D
:10A5B000BFF81DB0BDEC028BBDE8F08F314B0A93A4
:10A5C00002F48052002A3FF436AD00212E481CF0E0
:10A5D000A1FF00287FF42FAD0AF034FA2BE52B4BB6
:10A5E0001D78002D01F01586DFF8A8A0284DDFF8B2
:10A5F000A8B00895DFF8A490D04627E0295D9847D9
:10A60000032C03462ADCC8B109EB840339F8241073
:10A610005A88401A4FF47A7303FB00F0521A40F63E
:10A62000CA0390FBF2F000F57A709842A8BF184672
:10A6300040F2EE239842B8BF184600B2134B2BF8F5
:10A64000020B1B7801349C4280F25A84072C40464E
:10A65000DAF80430D2DDE1B29847034618B2EDE7EC
:10A660006C44040860960020313700208C2D0020B7
:10A6700000000000042F00201F85EB5174360020DD
:10A6800050000020E894002034880020108B002027
:10A6900084D90020DCB300205C290020248B00201A
:10A6A0006F023FF505ADA04C002084F8F000002EAD
:10A6B0003FF410AD9D48012404709D4800780029A6
:10A6C00000F0AA839B4F7C78002C71D0DFF898C2F1
:10A6D0009CF80040002C6BD1974C2478002C67D15B
:10A6E000964C2478002C63D1954C2478E4065FD4F2
:10A6F000DFF87892D9F800100C91E90601F135875E
:10A700003A790D929A4241F2CC878E4A0B920D9A79
:10A7100052004B2AA8BF4B22D2B29A4201F2308794
:10A72000894ADFED8A7A92ED017AB0EEC77AB4EE0B
:10A73000E77AF1EE10FA41F1238792ED007AB0EE5C
:10A74000C77AB4EEE77AF1EE10FA41F1198792ED8B
:10A75000027AB0EEC77AB4EEE77AF1EE10FA41F180
:10A760000F870C9A12B9069AC9F800204A2B784B29
:10A770007988D9F800401B68069D88BF49081B1BD3
:10A780004FF47A722B4402FB01F2934202D9012268
:10A790008CF80020002C01F0FE861C2811D16D4A97
:10A7A0004FF47A71B3FBF1F30121D380918008E07B
:10A7B0001C2841F02E81634A664B0B9200225A609E
:10A7C00041B1079B1D68EA0604D55D4B1B78DB068B
:10A7D00041F12C82604B1B78002B40F0A381089B39
:10A7E000BBF90000598B9B8B4F4C8142B4BF802238
:10A7F00000228342BBF90200C8BF42F04002920827
:10A800008142BCBF62F07F02D2B28342BBF9040036
:10A81000C8BF42F0400292088142BCBF62F07F0292
:10A82000D2B28342BBF90600C8BF42F04002920890
:10A830008142BCBF62F07F02D2B294F8F210834230
:10A84000C8BF42F04002914201F05984434B84F862
:10A85000F22099780023A4F8F43084F8F630002927
:10A8600000F086805F2A00F05D816F2A00F05A8137
:10A87000099B079A1B781268DD0740F18980384BE5
:10A880000693560700F11F86364F0C970DF16009AD
:10A890000023C9F80430CDE91A33189307F164088E
:10A8A0003C460BE029461AA81CF034FE074670B956
:10A8B000564511D3053444453FF440AC25782A2D44
:10A8C000F8D82379A67894F803A0012BEAD156454D
:10A8D000059F80F0A38001206178043140F6330C9D
:10A8E0003BF911106145A8BF6146B1F5617F4FF09A
:10A8F000190E40F2833CB8BF4FF461711EFB06C6CF
:10A90000B14240F391801EFB0AC29142CCBF0026A7
:10A910000126002840F08380B742CBD02946484624
:10A920001CF0E8FDC6E700BFF8280020FC36002038
:10A930001DC80020368500209DA80020FE3600207E
:10A94000E0940020CC890020902D00200000C84217
:10A95000B037002020C8002095B10020D489002005
:10A960004C950020388A0020FD360020AC370020AE
:10A97000002171481CF0CEFD002841F00C81099B9C
:10A980006E4A1B781060D90701F1A484079B1A68EE
:10A9900094F8F630002B7FF472AFB4F9F430322B18
:10A9A0007FF76DAF664B196811F020017FF467AF38
:10A9B00094F8F2300120572B84F8F60001F0048758
:10A9C000520702D55A2B01F03C875D2B01F06687B8
:10A9D0005E2B01F05C875B2B01F04A87562B01F060
:10A9E000CD8794F8F220972A02F09780A72A02F0E8
:10A9F0008B80544B06931B889F0742F04780A2F13F
:10AA0000B703072B01F2E187DFE813F0D80FDF0F60
:10AA1000DF0FDF0FD10FDF0FCA0FC30F002629464C
:10AA20001AA81CF067FD77E7002672E7BA78FB7872
:10AA30009A42C1F083800537A7423FF4A6AB39782C
:10AA40002329F8D1F2E7099B1B78D9077FF552AC8F
:10AA50004FF40F7033F040FF00283FF4A1AC27F013
